00COTAHIST.2022BOVESPA 20221229                                                                                                                                                                                                                      
012022010302GNDI3       010INTERMEDICA ON      NM   R$  000000000597000000000060880000000005727000000000589600000000058750000000005873000000000587520535000000000003960200000000023351263100000000000000009999123100000010000000000000BRGNDIACNOR2103
012022010302ABEV3       010AMBEV S/A   ON           R$  000000000154200000000015540000000001515000000000152900000000015330000000001532000000000153343784000000000023833600000000036454098800000000000000009999123100000010000000000000BRABEVACNOR1125
012022010302MODL11      010MODALMAIS   UNT     N2   R$  000000000108000000000011470000000001071000000000110800000000010930000000001093000000000111103729000000000000725000000000000803365000000000000000009999123100000010000000000000BRMODLCDAM13103
012022010302TASA4       010TAURUS ARMASPN      N2   R$  000000000250000000000025050000000002428000000000246600000000024540000000002449000000000245402665000000000000610900000000001506876600000000000000009999123100000010000000000000BRTASAACNPR4100
012022010302CRIV4       010ALFA FINANC PN           R$  000000000056800000000005700000000000557000000000056800000000005700000000000557000000000057000010000000000000005800000000000003296500000000000000009999123100000010000000000000BRCRIVACNPR1206
012022010302UPAC34      010UNIONPACIFICDRN          R$  000000003562100000000356210000000035140000000003533100000000352450000000030000000000000000000013000000000000000247000000000008726915000000000000009999123100000010000000000000BRUPACBDR001126
012022010302MCDC34      010MCDONALDS   DRN          R$  000000000752000000000076500000000007510000000000756400000000075800000000007575000000000765001446000000000000035334000000000267277622000000000000009999123100000010000000000000BRMCDCBDR000146
012022010302I1XC34      010ORIX CORP   DRN          R$  000000000725500000000072550000000007255000000000725500000000072550000000007140000000000725500001000000000000000208000000000001509040000000000000009999123100000010000000000000BRI1XCBDR003102
012022010302HAGA4       010HAGA S/A    PN           R$  000000000020200000000002100000000000194000000000019900000000002020000000000200000000000020200183000000000000059700000000000011937600000000000000009999123100000010000000000000BRHAGAACNPR4103
012022010302LPSB3       010LOPES BRASILON      NM   R$  000000000022900000000002320000000000214000000000021900000000002140000000000214000000000021701915000000000001552200000000000341483300000000000000009999123100000010000000000000BRLPSBACNOR0111